:100000000C9462000C948A000C948A000C948A0070
:100010000C948A000C948A000C948A000C948A0038
:100020000C948A000C948A000C948A000C948A0028
:100030000C948A000C948A000C948A000C948A0018
:100040000C9432030C948A000C941D010C948A00C9
:100050000C948A000C948A000C948A000C948A00F8
:100060000C948A000C948A000000000024002700F1
:100070002A0000000000250028002B0000000000DE
:1000800023002600290004040404040404040202DA
:100090000202020203030303030301020408102007
:1000A0004080010204081020010204081020000012
:1000B0000007000201000003040600000000000029
:1000C0000000D60111241FBECFEFD4E0DEBFCDBFAC
:1000D00011E0A0E0B1E0E2E7F9E002C005900D9286
:1000E000A231B107D9F711E0A2E1B1E001C01D9240
:1000F000AD3BB107E1F710E0C4ECD0E004C02297BB
:10010000FE010E94B304C23CD107C9F70E94160148
:100110000C94B7040C940000EF92FF920F931F937E
:10012000CF93DF93C0E0D0E001E010E084E0E82E60
:10013000F12C809100010E94FE03909313018093A3
:100140001201809102010E94FE0390931501809399
:100150001401809104010E94FE0390931701809383
:100160001601809106010E94FE0310931301009373
:1001700012011093150100931401109317010093BD
:1001800016011093190100931801F0921B01E092DF
:100190001A012196C531D10561F660911C0170915B
:1001A0001D0182EA91E00E941A0368EB7BE080E087
:1001B00090E00E947A0380911C0190911D010196AC
:1001C00090931D0180931C01489761F460911A017E
:1001D00070911B0182EA91E00E94220310921D019E
:1001E00010921C01DF91CF911F910F91FF90EF9022
:1001F000089582EA91E040E855E260E070E00E94F4
:100200005A018091000160E00E94DE0380910201AA
:1002100060E00E94DE038091040160E00E94DE0342
:100220008091060160E00E94DE0308950E94A4030D
:100230000E94F9000E948C00FDCF1F920F920FB612
:100240000F9211242F933F934F935F936F937F935C
:100250008F939F93AF93BF93EF93FF934091C6000B
:10026000E0919E01F0919F01CF01019660E870E05E
:100270000E944D049C018091A0019091A10128173A
:10028000390739F0E25EFE4F408330939F0120939F
:100290009E01FF91EF91BF91AF919F918F917F91BF
:1002A0006F915F914F913F912F910F900FBE0F90E3
:1002B0001F901895AF92BF92CF92DF92EF92FF926C
:1002C0000F931F93CF93DF936C017A018B01DC01B5
:1002D0001496AD90BC901597CB01BA0122E030E0A6
:1002E00040E050E00E948204205C3D4B404F5F4F55
:1002F000CA01B901A80197010E948204C901DA016B
:100300000197A109B109292F3A2F4B2F552747FDF6
:100310005A950196A11DB11DE5012883E601EE81E4
:10032000FF8181508083EA85FB85208141E050E098
:10033000CA010E8402C0880F991F0A94E2F7282B85
:100340002083EA85FB852081CA010F8402C0880FC3
:10035000991F0A94E2F7282B2083EA85FB85808188
:10036000088802C0440F551F0A94E2F7842B80834B
:10037000DF91CF911F910F91FF90EF90DF90CF9081
:10038000BF90AF900895FC01A085B18521898C9123
:1003900090E0022E02C0959587950A94E2F780FFBF
:1003A000F6CF0484F585E02D608308958CE091E01C
:1003B0009093A3018093A2018EE191E09093A50117
:1003C0008093A40185EC90E09093A7018093A6010F
:1003D00084EC90E09093A9018093A80180EC90E0D8
:1003E0009093AB018093AA0181EC90E09093AD01D2
:1003F0008093AC0186EC90E09093AF018093AE01C6
:1004000084E08093B00183E08093B10187E0809322
:10041000B20185E08093B30108950F931F93CF93AA
:10042000DF938C01EB0109C02196D801ED91FC917D
:100430000190F081E02DC801099568816623A1F73C
:10044000DF91CF911F910F910895EF92FF920F933B
:100450001F93CF93DF938C017B01EA010CC0D7017E
:100460006D917D01D801ED91FC910190F081E02D1D
:10047000C80109952197209791F7DF91CF911F919E
:100480000F91FF90EF9008950F931F938C01DC0163
:10049000ED91FC910190F081E02D6DE00995D8017E
:1004A000ED91FC910190F081E02DC8016AE0099581
:1004B0001F910F9108952F923F924F925F926F92EA
:1004C0007F928F929F92AF92BF92CF92DF92EF92E4
:1004D000FF920F931F93DF93CF93CDB7DEB7A09713
:1004E0000FB6F894DEBF0FBECDBF1C016A017B01C1
:1004F000411551056105710549F4DC01ED91FC914F
:100500000190F081E02D60E3099554C0882499247E
:100510005401422E55246624772401E010E00C0F8C
:100520001D1F080D191DC701B601A30192010E94EC
:100530006004F80160830894811C911CA11CB11C0B
:10054000C701B601A30192010E946004C901DA014A
:100550006C017D01C114D104E104F104F1F681E0E4
:10056000E82EF12CEC0EFD1EE80CF91C3E0108945F
:10057000611C711CD501C4010197A109B1096C016D
:10058000C818D90814C0F601EE0DFF1D60816A304D
:1005900010F4605D01C0695CD101ED91FC910190A6
:1005A000F081E02DC10109950894E108F1086E146D
:1005B0007F0449F7A0960FB6F894DEBF0FBECDBFFB
:1005C000CF91DF911F910F91FF90EF90DF90CF902F
:1005D000BF90AF909F908F907F906F905F904F9063
:1005E0003F902F900895EF92FF920F931F93CF9318
:1005F000DF93EC017A018B0177FF0FC0E881F9816D
:100600000190F081E02D6DE2099510950095F09430
:10061000E094E11CF11C011D111DCE01B801A701E0
:100620002AE00E945B02DF91CF911F910F91FF9012
:10063000EF900895AB01662757FD6095762F0E94D5
:10064000F30208950F931F938C01AB01662757FDAA
:100650006095762F0E94F302C8010E9444021F9108
:100660000F9108951F920F920FB60F9211242F939E
:100670003F938F939F93AF93BF938091B8019091D5
:10068000B901A091BA01B091BB013091BC010196B2
:10069000A11DB11D232F2D5F2D3720F02D57019661
:1006A000A11DB11D2093BC018093B8019093B901A5
:1006B000A093BA01B093BB018091B4019091B501B0
:1006C000A091B601B091B7010196A11DB11D809313
:1006D000B4019093B501A093B601B093B701BF9157
:1006E000AF919F918F913F912F910F900FBE0F90DF
:1006F0001F901895EF92FF920F931F937B018C012F
:100700008FB7F8944091B8015091B9016091BA0146
:100710007091BB018FBF2FB7F8948091B801909171
:10072000B901A091BA01B091BB012FBF841B950BF9
:10073000A60BB70BE816F9060A071B0760F71F910F
:100740000F91FF90EF900895789484B5826084BDF6
:1007500084B5816084BD85B5826085BD85B58160C5
:1007600085BDEEE6F0E0808181608083E1E8F0E025
:10077000808182608083808181608083E0E8F0E016
:10078000808181608083E1EBF0E080818460808300
:10079000E0EBF0E0808181608083EAE7F0E0808137
:1007A0008460808380818260808380818160808397
:1007B0008081806880831092C1000895282F30E0E6
:1007C000C90186569F4FFC0194912A573F4FF9016A
:1007D0008491882391F0E82FF0E0EE0FFF1FE85995
:1007E000FF4FA591B491662329F48C9190958923AC
:1007F0008C9308958C91892B8C930895682F70E0C9
:10080000CB0182559F4FFC012491CB0186569F4F0F
:10081000FC0144916A577F4FFB019491992319F48D
:1008200020E030E038C0222331F1233021F48091E0
:1008300080008F7705C0243031F4809180008F7D57
:100840008093800018C0213019F484B58F7704C0DC
:10085000223021F484B58F7D84BD0DC0263021F473
:100860008091B0008F7705C0273029F48091B000C7
:100870008F7D8093B000892F90E0880F991F845856
:100880009F4FFC01A591B4918C9120E030E084232E
:1008900011F021E030E0C901089597FB092E0726E9
:1008A0000AD077FD04D049D006D000201AF4709504
:1008B00061957F4F0895F6F7909581959F4F089524
:1008C000A1E21A2EAA1BBB1BFD010DC0AA1FBB1F54
:1008D000EE1FFF1FA217B307E407F50720F0A21BC6
:1008E000B30BE40BF50B661F771F881F991F1A9433
:1008F00069F760957095809590959B01AC01BD015D
:10090000CF01089597FB092E05260ED057FD04D080
:10091000D7DF0AD0001C38F45095409530952195CA
:100920003F4F4F4F5F4F0895F6F790958095709524
:1009300061957F4F8F4F9F4F0895AA1BBB1B51E1BD
:1009400007C0AA1FBB1FA617B70710F0A61BB70B3F
:10095000881F991F5A95A9F780959095BC01CD01E4
:100960000895EE0FFF1F0590F491E02D0994F8947F
:02097000FFCFB7
:10097200010002000300040000000000C3010D0298
:0209820025024C
:00000001FF
